:020000040800F2
:100000006807002031050008050300080703000801
:100010000B0300080F030008130300080000000092
:1000200000000000000000000000000017030008AE
:1000300019030008000000001B0300081D0300084E
:100040004B0500084B0500084B0500084B05000850
:100050004B0500084B050008EB2400084B05000881
:100060004B0500084B050008B92400084B050008A3
:100070004B0500084B0500084B0500084B05000820
:100080004B0500084B0500084B0500084B05000810
:100090004B0500084B0500084B0500084B05000800
:1000A0004B0500084B0500084B0500084B050008F0
:1000B0004B0500084B0500084B0500084B050008E0
:1000C0004B0500084B0500084B0500084B050008D0
:1000D0004B050008CB2300084B0500084B05000822
:1000E0004B0500084B0500084B0500084B050008B0
:1000F0004B0500084B0500084B0500084B050008A0
:100100004B0500084B0500084B0500084B0500088F
:100110004B0500084B0500087D0200084B05000850
:100120004B0500084B0500084B0500084B0500086F
:100130004B0500084B0500084B0500084B0500085F
:100140004B0500084B0500084B0500084B0500084F
:100150004B0500084B0500084B0500084B0500083F
:100160004B0500084B0500084B0500084B0500082F
:100170004B0500084B0500084B0500084B0500081F
:100180004B0500084B05000800F002F800F041F8AC
:100190000AA090E8000C82448344AAF10107DA45E2
:1001A00001D100F036F8AFF2090EBAE80F0013F0F3
:1001B000010F18BFFB1A43F001031847642C00001D
:1001C000842C0000103A24BF78C878C1FAD85207AE
:1001D00024BF30C830C144BF04680C6070470000C1
:1001E0000023002400250026103A28BF78C1FBD840
:1001F000520728BF30C148BF0B607047752902F015
:100200000985002070471FB502F004FE1FBD10B520
:1002100010BD02F0CDFD1146FFF7F5FF00F008F824
:1002200002F0EBFD03B4FFF7F2FF03BC02F058F855
:100230004FF4A06000F09CF9A82001F0CFFF4FF42C
:10024000E13002F05AF842F2CF0142F20F7002F0B0
:10025000B1F902F0DFF902F010FC1DA201210846FD
:1002600002F045FC1DA20121022002F040FC1321F6
:100270004FF0804001F0D5F900BFFEE710B5012135
:10028000174801F094FC01281CD116480088401C36
:10029000144908800846028813A1144802F072FC31
:1002A0001048018812A002F061FC104A03210220CC
:1002B00002F01DFC1248006808B9012000E000208F
:1002C0000F4908600121064801F082FC10BD0000C2
:1002D000696E746572727570740000006E3D000086
:1002E00000100040000000202575000002000020E2
:1002F000D6D0B6CFB4CECAFDA3BA25750000000093
:10030000A4824242704700BFFEE700BFFEE700BF85
:10031000FEE700BFFEE77047704770477047000078
:100320000CB50020019000907648006840F48030C1
:100330007449086000BF7348006800F40030009002
:100340000198401C0190009818B90198B0F5A04F91
:10035000F1D16C48006800F4003010B10120009029
:1003600001E0002000900098012846D16548403007
:10037000006840F08050634940310860624800687E
:1003800040F44040604908605E48083000685D49BC
:10039000083108600846006840F4004008600846DC
:1003A000006840F4A05008605848091F0860081F02
:1003B000006840F08070091F086000BF5148006865
:1003C00000F000700028F9D040F205705049086034
:1003D0004C480830006820F003004A4908310860A2
:1003E0000846006840F00200086000BF4548083039
:1003F000006800F00C000828F8D10CBD10B5454885
:10040000006840F47000434908603E48006840F0CE
:1004100001003C49086000203A4908310860394829
:1004200000683D490840374908603C48091D08609C
:10043000081F006820F48020091F0860002031494F
:100440000C310860FFF76CFF4FF0006031498039D4
:10045000086010BD70B50020002202230024022194
:10046000284D08352D6805F00C0020B1042806D071
:10047000082834D107E02A4D2A4E356033E02A4D52
:10048000284E35602FE01F4D2D1D2D68C5F380547B
:100490001C4D2D1D2D6805F03F0154B1224DB5FBBB
:1004A000F1F5184E361D3668C6F3881605FB06F2C0
:1004B00009E01B4DB5FBF1F5124E361D3668C6F34B
:1004C000881605FB06F20F4D2D1D2D68C5F301455D
:1004D0006D1C6B00B2FBF3F5124E356003E0104D5E
:1004E000104E356000BF00BF064D08352D68C5F3BE
:1004F00003150E4E705D0B4D2D68C540094E3560DD
:1005000070BD0000003802400070004008544007F1
:10051000003C024088ED00E0FFFFF6FE10300024B2
:100520000024F4000800002000127A000C000020D3
:100530000948804709480047FEE7FEE7FEE7FEE777
:10054000FEE7FEE7FEE7FEE7FEE7FEE704480549B3
:10055000054A064B70470000FD03000889010008AA
:10056000680100206807002068030020680300205D
:1005700032490143324A1160704770B500210023AF
:100580000F22C4781CB32E4C246804F4E064C4F534
:10059000E064C4F30721C1F10404E3B20A414478E2
:1005A0009C40E1B28478144021430C07210E254C75
:1005B00005786155047804F01F050124AC400578E6
:1005C0006D11AD0005F1E025C5F8004109E00478A2
:1005D00004F01F050124AC401B4D0678761145F848
:1005E000264070BD194A0A400243154B1B1F1A6072
:1005F000704739B1124A121D12680243104B1B1D7D
:100600001A6006E00E4A121D126882430C4B1B1D35
:100610001A607047042808D14FF0E021096941F0C1
:1006200004014FF0E022116107E04FF0E021096979
:1006300021F004014FF0E022116170470000FA053B
:100640000CED00E000E400E080E100E080FFFF1F2F
:10065000002041490860091D0860091D0860091D46
:1006600008603E483C4914310860704700213A490F
:100670008279002A3AD00A46126803689A430B46E8
:100680001A600A1D126803689A430B1D1A600279EA
:1006900011440A6803681A430A602F4A0832126834
:1006A00003689A432C4B08331A601A1D12680368BA
:1006B0009A43294B0C331A604279102A0ED11A1F23
:1006C000126803681A43244B08331A601A1D126813
:1006D00003681A43204B0C331A600DE01E4942791F
:1006E00011440A6803681A430A6005E0027911445C
:1006F0000A6803689A430A6070470021016001712B
:100700000C21417100218171704713491031096832
:100710000143114A103211607047014600200E4A11
:10072000143212680A400AB1012000E0002070472C
:10073000094914310860704701460020064A143206
:1007400012680A400AB1012000E000207047024907
:100750001431086070470000003C0140FFFF7F003B
:1007600010B504469848844208D10121084600F09B
:1007700086FB0021012000F082FB76E09348844252
:1007800008D10121022000F07AFB0021022000F0B4
:1007900076FB6AE08E48844208D10121042000F0F3
:1007A0006EFB0021042000F06AFB5EE08948844271
:1007B00008D10121082000F062FB0021082000F090
:1007C0005EFB52E08448844208D10121102000F0F1
:1007D00056FB0021102000F052FB46E07F48844287
:1007E00008D10121202000F04AFB0021202000F048
:1007F00046FB3AE07A48844208D10121402000F0CB
:100800003EFB0021402000F03AFB2EE07548844278
:1008100008D10121802000F032FB0021802000F06F
:100820002EFB22E07048844208D10121801500F09F
:1008300026FB0021A01500F022FB16E06B48844245
:1008400008D10121401500F01AFB0021601500F0CD
:1008500016FB0AE06648844207D10121001500F02A
:100860000EFB0021201500F00AFB10BDF0B50A4672
:1008700000210023002400BF3DE0012505FA01F31B
:10088000156805EA03049C4234D105684F0003262D
:10089000BE40B543056015794E00B5400668354346
:1008A00005601579012D02D01579022D16D18568C4
:1008B0004F000326BE40B543856055794E00B540D4
:1008C000866835438560456801268E40B54345609E
:1008D000456896798E40B6B235434560C5684F008D
:1008E0000326BE40B543C560D5794E00B540C66805
:1008F0003543C560491C1029BFD3F0BD4FF6FF71C9
:1009000001600021017141718171C171704708B5A9
:100910004FF480320092009A0A430092009AC2611A
:10092000C161009AC261C2690092C269009208BDA9
:100930000246002013690B400BB1012000E00020AB
:1009400070470146086980B270470246002053692B
:100950000B400BB1012000E00020704701464869C0
:1009600080B2704701837047418370470AB10183A9
:1009700000E0418370474161704742694A404261EB
:100980007047F0B5002300244D07ED0E02FA05F381
:10099000CE1000F1200555F826504E07F70E0F2611
:1009A000BE40B543CF1000F1200646F82750CE10C8
:1009B00000F1200555F8265045EA0304CE1000F159
:1009C000200545F82640F0BD00000240000402402A
:1009D00000080240000C02400010024000140240D7
:1009E00000180240001C0240002002400024024087
:1009F00000280240F948006840F00100F74908600B
:100A00000020F64908310860F4480068F4490840BD
:100A1000F2490860F348091D0860F348EF49843142
:100A20000860F0481038091D0860EC48006820F4A0
:100A30008020EA4908600020E8490C310860E74955
:100A40008C31086070470021E44A921C11701146F5
:100A50000870704710B501460022002300204A119B
:100A6000012A02D1DD4C236808E0022A03D1DB4CC5
:100A70007034236802E0D94C7434236801F01F02FB
:100A8000012494401C400CB1012000E0002010BD66
:100A900038B5002000900024002500BF3120FFF76A
:100AA000D9FF05460098401C00900098B0F5A04F73
:100AB00001D0002DF2D03120FFF7CCFF08B1012486
:100AC00000E00024204638BD01460020C34A1068DB
:100AD00020F0F80040EAC10010607047C349086088
:100AE00070470021BD4A703211701170012802D088
:100AF00004280AD104E00121B84A7032117005E0DF
:100B00000521B64A7032117000E000BF00BF704787
:100B1000B7490860704770B5049C41EA8215012608
:100B2000C6EB530645EA0645054345EA0465AB4E68
:100B3000361D356070BDAD4908667047820142EAD6
:100B40000172A64B84331A607047A84988667047C3
:100B500010B5830143EA016343EA02739F4C883472
:100B6000236010BDA14908677047A049C864704759
:100B700002460020994B0833186820F0EC6042EAE6
:100B800001031843954B0833186070470246002054
:100B9000924B0833186820F0784042EA010318436A
:100BA0008E4B083318607047014600208B4A08328C
:100BB000106820F003000843106070478748083031
:100BC000006800F00C00704701460020834A08329C
:100BD000106820F0F00008431060704701460020C4
:100BE0007E4A0832106820F4E050084310607047D5
:100BF00001460020794A0832106820F4604040EA3B
:100C0000C10010607047F0B50021002200240225C9
:100C100000260223714F08373F6807F00C0121B10D
:100C2000042905D0082937D105E0724F076036E066
:100C3000714F076033E0694F3F1D3F68C7F380562F
:100C4000664F3F1D3F6807F03F036EB16A4FB7FB29
:100C5000F3F7DFF888C10CF1040CDCF800C0CCF32A
:100C6000881C07FB0CF40CE0624FB7FBF3F7DFF8CE
:100C70006CC10CF1040CDCF800C0CCF3881C07FB41
:100C80000CF4564F3F1D3F68C7F301477F1C7D00A2
:100C9000B4FBF5F7076002E0564F076000BF00BFE6
:100CA0004E4F08373F6807F0F0010909534F7A5C4F
:100CB0000768D7404760494F08373F6807F4E0515D
:100CC000890A4E4F7A5C4768D7408760434F0837A0
:100CD0003F6807F46041490B484F7A5C4768D7404A
:100CE000C760F0BD002100F44072B2F5407F0AD128
:100CF0003A4A0832116821F4F811414A024011437E
:100D0000364A08321160354A70321268C0F30B035C
:100D10001A43324B70331A607047354944390860C2
:100D2000704733494039086070473649086070475A
:100D300001460020294A8C32106820F01F004A1E0C
:100D40001043264A8C321060704701460020234A27
:100D50008C32106820F4F8504A1E40EA02201F4AE4
:100D60008C3210607047014600201C4A8C3210689B
:100D700020F4401008431060704701460020174AD5
:100D80008C32106820F44000084310607047014620
:100D90000020124A8C32106820F440300843106062
:100DA000704719490860704739B10C4A30321268EF
:100DB00002430A4B30331A6006E0084A30321268A8
:100DC0008243064B30331A607047F9B1034A34321C
:100DD00012680243014B34331A601CE000380240B1
:100DE000FFFFF6EA103000240030002000004742E8
:100DF000800E47420024F40000127A001C000020FC
:100E0000FFFCFF0F5C014742E01147428F4A126826
:100E100082438E4B1A60704739B18C4A121D12689A
:100E200002438A4B1B1D1A6006E0884A121D126895
:100E30008243864B1B1D1A60704739B1834A0C32BE
:100E400012680243814B0C331A6006E07F4A0C3271
:100E5000126882437D4B0C331A60704739B17B4A6C
:100E6000103212680243794B10331A6006E0774A59
:100E7000103212688243754B10331A60704739B1D3
:100E8000724A243A12680243704B243B1A6006E00F
:100E90006E4A243A126882436C4B243B1A607047B6
:100EA00039B16A4A203A12680243684B203B1A6003
:100EB00006E0664A203A12688243644B203B1A607F
:100EC000704739B1614A1C3A126802435F4B1C3BC0
:100ED0001A6006E05D4A1C3A126882435B4B1C3B79
:100EE0001A60704739B1594A143A12680243574B95
:100EF000143B1A6006E0554A143A12688243534B79
:100F0000143B1A60704739B1504A103A12680243D4
:100F10004E4B103B1A6006E04C4A103A126882436E
:100F20004A4B103B1A60704739B1484A1C3212686C
:100F30000243464B1C331A6006E0444A1C321268D6
:100F40008243424B1C331A60704739B13F4A20320A
:100F5000126802433D4B20331A6006E03B4A2032C0
:100F600012688243394B20331A60704739B1374ACF
:100F7000243212680243354B24331A6006E0334AA8
:100F8000243212688243314B24331A60704739B1DE
:100F90002E4A2C32126802432C4B2C331A6006E086
:100FA0002A4A2C3212688243284B2C331A6070472D
:100FB00039B1264A303212680243244B30331A606A
:100FC00006E0224A303212688243204B30331A60E6
:100FD0007047012808D11D493C31096841F00801DA
:100FE0001A4A3C32116007E018493C31096821F087
:100FF0000801164A3C321160704739B1134A273A4A
:1010000012780243114B273B1A7006E00F4A273A29
:10101000127882430D4B273B1A7070470B484030C3
:10102000006840F08070094940310860704701460F
:101030000020064A283A12680A400AB1012000E05E
:101040000020704701492639087070473438024043
:1010500010B501218803FFF756FF00214FF48040AF
:10106000FFF751FF10BD1C49086070471B4908621B
:10107000704730B500228B071C0F0F2303FA04F2D0
:10108000154B08338C1053F824309343124C08341A
:101090008D1044F8253023468C1053F824308C07EB
:1010A000240F00FA04F423430B4C08348D1044F849
:1010B000253030BD0949DC310860704708490860B7
:1010C0007047002004492031096801F4807109B19A
:1010D000012000E000207047003801400000274256
:1010E0000004274210B50446FE48844208D101217D
:1010F0000846FFF708FF00210120FFF704FF9DE0ED
:10110000B4F1804F08D101210846FFF7EBFE002122
:101110000120FFF7E7FE91E0F348844208D1012166
:101120000220FFF7DFFE00210220FFF7DBFE85E053
:10113000EE48844208D101210420FFF7D3FE0021AC
:101140000420FFF7CFFE79E0E948844208D101216D
:101150000820FFF7C7FE00210820FFF7C3FE6DE05F
:10116000E448844208D101211020FFF7BBFE002192
:101170001020FFF7B7FE61E0DF48844208D101216B
:101180002020FFF7AFFE00212020FFF7ABFE55E047
:10119000DA48844208D101210220FFF7B4FE002181
:1011A0000220FFF7B0FE49E0D548844209D1012171
:1011B0000804FFF7A8FE00214FF48030FFF7A3FEDC
:1011C0003CE0D048844209D101214804FFF79BFE4E
:1011D00000214FF40030FFF796FE2FE0CA4884420A
:1011E00009D101218804FFF78EFE00214FF48020F1
:1011F000FFF789FE22E0C548844208D10121402042
:10120000FFF770FE00214020FFF76CFE16E0C0489B
:10121000844208D101218020FFF764FE0021802054
:10122000FFF760FE0AE0BB48844207D10121801528
:10123000FFF758FE0021A015FFF754FE10BD002255
:101240000288A84B98420ED0AC4B98420BD0B0F11C
:10125000804F08D0A44B984205D0A44B984202D0AE
:10126000A34B984204D14FF68F731A404B881A4310
:10127000A04B984207D0A04B984204D04FF6FF43B2
:101280001A400B891A4302804B68C3620B8803859E
:10129000944B984202D0994B984201D18B7A0386A5
:1012A0000123838270474FF0FF31416000210180AC
:1012B00001814180817270470185828270470A46B0
:1012C000002101884FF68F73194011430180704748
:1012D00041627047C16270470146486A70470146E3
:1012E000088D704721B1028842F00202028004E0BA
:1012F00002884FF6FD731A400280704721B10288C0
:1013000042F00402028004E002884FF6FB731A40A8
:101310000280704721B1028842F08002028004E01E
:1013200002884FF67F731A400280704702884FF69A
:10133000F7731A40028002880A43028070470288CD
:101340004FF6FF431A40028002880A43028070472A
:1013500021B1028842F00102028004E002884FF6C7
:10136000FE731A400280704770B5002400220023EB
:10137000058C4FF6FE7635400584028C8388048BFD
:101380004FF68F752C40B51E2C400D882C43751ED2
:101390002A408D892A434D882A43524DA84202D0C3
:1013A000564DA84213D14FF6F7752A40CD892A43EE
:1013B0004FF6FB752A408D882A434FF6FF652B4078
:1013C0004FF6FF552B400D8A2B434D8A2B438380CC
:1013D00004838D684563028470BD70B500240022CB
:1013E0000023058C4FF6EF7635400584028C838808
:1013F000048B48F6FF752C404FF6FF452C400D88B6
:101400004FF6FF7606EA05252C434FF6DF752A4096
:101410008D8906EA05152A434D8806EA05152A43F3
:10142000304DA84202D0354DA8421DD14FF67F75F0
:101430002A40CD894FF6FF7606EA05152A434FF676
:10144000BF752A408D8806EA05152A434FF6FF35F9
:101450002B404FF2FF752B400D8A06EA85052B4382
:101460004D8A06EA85052B43838004838D68856356
:10147000028470BD70B5002400220023058C4FF655
:10148000FF6635400584028C8388848B4FF68F7508
:101490002C404FF6FC752C400D882C434FF6FF5521
:1014A0002A408D894FF6FF7606EA05252A434D88A6
:1014B00006EA05252A430B4DA84202D00F4DA8424B
:1014C00038D14FF2FF752A40CD894FF6FF7606EAF4
:1014D00005252A434FF6FF352A408D8806EA052563
:1014E0002A4319E0000001400004004000080040C9
:1014F000000C0040001000400014004000040140B7
:1015000000400140004401400048014000180040F4
:10151000001C0040002000404EF6FF752B404DF6A9
:10152000FF752B400D8A06EA05152B434D8A06EA06
:1015300005152B43838084838D68C563028470BD49
:1015400070B5002200230024058C4EF6FF7635404E
:101550000584038C8488828B48F6FF752A404FF6F9
:10156000FF452A400D884FF6FF7606EA05252A43F7
:101570004DF6FF752B408D8906EA05352B434D88C6
:1015800006EA05352B43FE4DA84202D0FD4DA84288
:1015900008D14BF6FF752C400D8A4FF6FF7606EA10
:1015A00085152C43848082838D680564038470BD17
:1015B000002101804180818081608181C18101821F
:1015C0004182704770B50346002000241846183049
:1015D00001258D40ACB21D8CA5431D8409B108299D
:1015E0000AD100EB610005684FF68F763540056043
:1015F0000568154305600FE00D1FC5F34E0528442F
:10160000056848F6FF763540056005684FF6FF76B9
:1016100006EA02263543056070BD41637047816369
:101620007047C1637047016470470A460021018B0F
:101630004FF68F7319401143018370470A4600210A
:10164000018B48F6FF7319404FF6FF7303EA02233C
:101650001943018370470A460021818B4FF68F732F
:1016600019401143818370470A460021818B48F657
:10167000FF7319404FF6FF7303EA02231943818376
:1016800070470A460021018B4FF6F773194011434A
:10169000018370470A460021018B4FF2FF73194006
:1016A0004FF6FF7303EA02231943018370470A468A
:1016B0000021818B4FF6F7731940114381837047E6
:1016C0000A460021818B4FF2FF7319404FF6FF73DA
:1016D00003EA02231943818370470A460021018BE4
:1016E0004FF6FB7319401143018370470A460021EE
:1016F000018B4FF6FF3319404FF6FF7303EA0223C5
:101700001943018370470A460021818B4FF6FB7312
:1017100019401143818370470A460021818B4FF69F
:10172000FF3319404FF6FF7303EA02231943818305
:1017300070470A460021018B4FF67F731940114311
:10174000018370470A460021018BC1F30E014FF659
:10175000FF7303EA02231943018370470A460021FD
:10176000818B4FF67F7319401143818370470A467E
:101770000021818BC1F30E014FF6FF7303EA0223B0
:101780001943818370470A460021018C4FF6FD738F
:1017900019401143018470470A460021018C4FF61D
:1017A000F77319401143018470470A460021018CE8
:1017B0004FF6DF7319404FF6FF7303EA0213194324
:1017C000018470470A460021018C4FF67F7319404F
:1017D0004FF6FF7303EA02131943018470470A4668
:1017E0000021018C4FF6FF5319404FF6FF7303EAB7
:1017F00002231943018470470A460021018C4FF2ED
:10180000FF7319404FF6FF7303EA02231943018463
:1018100070470A460021018C4DF6FF7319404FF6C0
:10182000FF7303EA023319430184704730B5002384
:1018300001248C40A3B2048C9C430484048C02FADF
:1018400001F5ADB22C43048430BD30B5002304242F
:101850008C40A3B2048C9C430484048C02FA01F5EE
:10186000ADB22C43048430BD828B4FF2FF331A405B
:101870008283828B4FF6FF7303EA01231A4382832C
:101880007047F0B50C461546002100220026078C53
:101890004EF6FF7C07EA0C070784818B028C4FF61B
:1018A000FF7707EA043640F6FF4739404FF6FF77E7
:1018B00007EA052739434FF6FF7707EA033739432D
:1018C00045F6FF773A4046F480573A4381830284D5
:1018D000F0BD828B4FF6F3731A408283828B0A43EA
:1018E00082837047F0B50C46154600210022002681
:1018F000078C4FF6FF6C07EA0C070784818B028C7C
:101900004FF6FF7707EA04264FF60C7739404FF67B
:10191000FF7707EA03172F4339434FF2FF573A4047
:1019200046F480773A4381830284F0BD028B4FF204
:10193000FF331A400283028B4FF6FF7303EA012341
:101940001A4302837047F0B50C4615460021002269
:101950000026078C4FF6EF7C07EA0C070784018B03
:10196000028C4FF6FF7707EA041640F6FF4739402E
:101970004FF6FF7707EA033739434FF6FF7703E067
:10198000000001400004014007EA052739434FF6F3
:101990005F773A4046F010073A4301830284F0BD76
:1019A000028B4FF6F3731A400283028B0A430283C1
:1019B0007047F0B50C46154600210022068C4FF604
:1019C000FE773E400684018B028C4FF60C76314048
:1019D0007E1C06EA03162E4331434FF6F57632405D
:1019E00044F00106324301830284F0BD70B5054620
:1019F0000C46208850B92389A28861882846FFF7C1
:101A0000D8FFE1882846FFF7CBFF25E0208804288F
:101A10000AD12389A28861882846FFF794FFE188CC
:101A20002846FFF783FF17E0208808280AD123897A
:101A3000A28861882846FFF755FFE1882846FFF70E
:101A400048FF09E02389A28861882846FFF719FF2B
:101A5000E1882846FFF708FF70BD00210180418022
:101A6000012181800021C180018170472DE9F04171
:101A700005460C4600260127608808B9022600E0CA
:101A80000026A088012801D1022700E00127208834
:101A9000A0B92389A28861882846FFF78AFFE188D8
:101AA0002846FFF77DFF23893A4631462846FFF74F
:101AB0004AFFE1882846FFF739FF13E02389A2880F
:101AC00061882846FFF73FFFE1882846FFF72EFF91
:101AD00023893A4631462846FFF76BFFE1882846BE
:101AE000FFF75EFFBDE8F0810146486B7047014695
:101AF000886B70470146C86B70470146086C704799
:101B00000A884B881A438B881A43CB881A430B895F
:101B10001A434B891A438B891A43A0F84420704713
:101B20000021018041808180C180018141818181CA
:101B3000704731B1B0F8442042F40042A0F844208C
:101B400005E0B0F84420C2F30E02A0F8442070472C
:101B500021B1828842F00402828004E082884FF63C
:101B6000FB731A408280704721B1828842F00102E3
:101B7000828004E082884FF6FE731A4082807047AC
:101B80001AB183890B43838102E083898B4383816C
:101B900070478182704702460020138A0B400BB1C8
:101BA000012000E000207047CA430282704730B530
:101BB0000246002000230024158A05EA01039589C6
:101BC00005EA010413B10CB1012000E0002030BD92
:101BD000CA430282704741EA0203A0F848307047C6
:101BE0001AB183890B43838102E083898B4383810C
:101BF000704721B1828842F00802828004E0828826
:101C00004FF6F7731A408280704701894FF6F872D9
:101C10001140018170470A46002101894FF68F73F8
:101C2000194011430181704730B504460D462946DD
:101C30002046FFF7F0FF208940F00700208130BDEB
:101C40002DE9F04104460D4616461F46602D06D18B
:101C50003B46012231462046FFF775FE05E03B4634
:101C6000012231462046FFF7A4FE29462046FFF711
:101C7000D2FF208940F007002081BDE8F08130B517
:101C80000C4600210189C9B24FF6FF7505EA03250C
:101C9000154325432943018130BD2DE9F041054617
:101CA0000E4617469846002443463A463146284693
:101CB000FFF7E5FF2C894FF6F870044044F0070465
:101CC0004FF68F70044044F070042C81BDE8F08121
:101CD000F0B504460D4616461F463B463246294699
:101CE0002046FFF7CCFF208940F480402081F0BDE2
:101CF00082884FF68F731A40828082880A438280DE
:101D0000704702894FF6F8731A40028102890A432C
:101D10000281704702894FF67F731A40028102895F
:101D20000A4302817047F0B50C4615461E46002155
:101D3000002200230189028B038C4FF6F87739408B
:101D400021434FF6FC473A4040F201173A434FF621
:101D5000DD773B404FF6FF7707EA06172F433B43FB
:101D6000018102830384F0BD21B1828842F08002A8
:101D7000828004E082884FF67F731A408280704729
:101D8000A0F850107047000010B50446FA4884428D
:101D900008D101211020FFF7B6F800211020FFF72D
:101DA000B2F857E0F548844209D101214804FFF711
:101DB00099F800214FF40030FFF794F84AE0F0481A
:101DC000844209D101218804FFF78CF800214FF4E7
:101DD0008020FFF787F83DE0EA48844209D10121DD
:101DE000C804FFF77FF800214FF40020FFF77AF8CE
:101DF00030E0E548844209D101210805FFF772F877
:101E000000214FF48010FFF76DF823E0DF48844293
:101E100008D101212020FFF776F800212020FFF7CC
:101E200072F817E0DA48844209D101218807FFF7E8
:101E300059F800214FF08040FFF754F80AE0D548E8
:101E4000844207D101214005FFF74CF800216005CD
:101E5000FFF748F810BD2DE9FF4705460E46002460
:101E6000A14600BFA046B08900B100BF2C8A24F46F
:101E70004054F08804432C82AC8941F20C608443C6
:101E8000B08831890843718908430443AC81AC8A26
:101E900024F44074B0890443AC826846FEF7B3FE74
:101EA000B548854202D0B948854202D1DDF80C9090
:101EB00001E0DDF80890A88900F4004040B109EB8A
:101EC000C90000EB091031684900B0FBF1F707E0E9
:101ED00009EBC90000EB091031688900B0FBF1F78C
:101EE0006420B7FBF0F004012009642101FB1078A5
:101EF000A88900F4004040B1322000EBC800B0FBDC
:101F0000F1F000F00700044308E0322000EB081075
:101F10006421B0FBF1F000F00F0004432C81BDE818
:101F2000FF874FF41651016000218180C18001813B
:101F30000C21418100218181704710B502460020AB
:101F4000108A20F470600B884C8823438C882343CC
:101F5000CC8823431843108210BD002101804180AA
:101F60008180C180704721B1828942F40052828110
:101F700004E082894DF6FF731A4082817047028B1C
:101F800002F47F420283028B0A430283704721B12D
:101F9000828942F40042828103E08289C2F30E0208
:101FA0008281704721B1828A42F40062828204E019
:101FB000828A4FF2FF731A4082827047C1F308028F
:101FC0008280704701468888C0F308007047028A03
:101FD0004FF6F0731A400282028A0A430282704767
:101FE00021B1828942F00202828104E082894FF6A7
:101FF000FD731A408281704782894FF2FF731A4045
:10200000828182890A4382817047028A4FF6DF7398
:102010001A400282028A0A430282704721B1028A70
:1020200042F48042028204E0028A4BF6FF731A40B7
:1020300002827047818941F001018181704721B19D
:10204000828A42F00802828204E0828A4FF6F773A5
:102050001A4082827047028BD2B20283028B42EA1C
:1020600001220283704721B1828A42F020028282DB
:1020700004E0828A4FF6DF731A408282704721B1F2
:10208000828A42F01002828204E0828A4FF6EF7365
:102090001A4082827047828A4FF6FB731A4082820E
:1020A000828A0A438282704721B1828A42F0020208
:1020B000828204E0828A4FF6FD731A408282704762
:1020C0001AB1838A0B43838202E0838A8B43838223
:1020D0007047F0B50346002400260025002040F696
:1020E0006A17B94200D100BF1846C1F3421401F08B
:1020F0001F06012707FA06F5012C01D10C3004E078
:10210000022C01D1103000E014301AB107682F43BF
:10211000076002E00768AF430760F0BD0246002099
:10212000B1F5007F00D100BF13880B400BB1012037
:1021300000E00020704701F40072B2F5007F00D18A
:1021400000BFCA430280704770B5024600240023D6
:102150000025002040F66A16B14200D100BFC1F34D
:10216000421501F01F03012606FA03F3012D13D1D6
:102170009689334017E00000001001400044004001
:1021800000480040004C0040005000400014014056
:1021900000780040007C0040022D02D1168A3340B6
:1021A00001E0968A33400C12012606FA04F41688E0
:1021B000344013B10CB1012000E0002070BD10B517
:1021C0000022002340F66A14A14200D100BF0A1287
:1021D00001249440A3B2DC43048010BD10B5044632
:1021E0006FF00400FEF716FAE11704EB5171C1F32A
:1021F000C701394A11701046007800EB4001C1EB6D
:10220000C0104FF6FF7101EAC0003449088010BDCC
:102210000146314A12784A434FF0E0235A610022C6
:102220009A611A46126942F001021A6100BF4FF02A
:10223000E022106900F001021AB100F48032002A95
:10224000F5D04FF0E022126922F001024FF0E023B6
:102250001A6100229A6170470146204A12884A4357
:102260004FF0E0235A6100229A611A46126942F047
:1022700001021A6100BF4FF0E022106900F0010274
:102280001AB100F48032002AF5D04FF0E022126932
:1022900022F001024FF0E0231A6100229A61704798
:1022A00070B504464FF4077094FBF0F0C6B24FF4DB
:1022B000077094FBF0F100FB114085B205E04FF48C
:1022C0000770FFF7C9FF701EC6B2002EF7D115B117
:1022D0002846FFF7C1FF70BD2C0000202E00002013
:1022E00000BF704700BF574A128802F04002002A20
:1022F000F9D0C2B2534B9A80704710B588B00446EB
:1023000001210846FEF750FD01211020FEF7A6FD31
:10231000072209214C48FEF734FB07220A214A48CC
:10232000FEF72FFB4FF4C060069002208DF81C00D2
:102330008DF81D0000208DF81E0001208DF81F0073
:1023400006A94148FEF792FA02940020ADF80C006D
:10235000ADF80E00ADF81000ADF814000C20ADF88B
:10236000120002A93748FFF776FD01213548FFF733
:10237000FAFD012240F225513248FFF7AAFE25203E
:102380008DF8040003208DF805008DF8060001206B
:102390008DF8070001A8FEF7F0F808B010BD70B581
:1023A0000546042600240DE035F814102548FFF7F3
:1023B00005FE00BF40212348FFF7B0FE0128F9D1F8
:1023C000601CC4B2B442EFDD70BD10B540F22551BF
:1023D0001C48FFF7B9FE10B31A48FFF7F3FDC4B26B
:1023E0001A48008800F40040C8B91848008800F472
:1023F000804060B10A2C03D000201449088020E0FE
:102400001248008840F400401049088019E00D2C63
:1024100006D10E48008840F480400C49088010E046
:102420000A480088C0F30D0009490C540748008889
:10243000401C0649088008460088C72801DD0020A6
:10244000088010BD00100140000002403400002050
:102450003C0000200EB501218803FEF7FFFC00219F
:102460000846FEF706FE04210846FEF702FE11208C
:10247000009001208DF8060000208DF804000C204B
:102480008DF805006846FEF7F1F806208DF8080083
:1024900001208DF80B008DF809008DF80A0002A8C4
:1024A000FEF76BF80A208DF8080001208DF809006E
:1024B00002A8FEF762F80EBD10B51020FEF747F92E
:1024C00000200C4908600C480078401C0A4908703C
:1024D00008460078042801D10020087006480078DA
:1024E00010B901200449087010BD10B51020FEF786
:1024F0002EF910BD380000203600002030B589B01C
:1025000005460C4601210846FEF797FC0795ADF8F5
:1025100018400020ADF81A00ADF8200006A94FF0D1
:102520008040FEF78CFE6020ADF804000120ADF87D
:1025300006000220ADF8100001A94007FEF79AFF3F
:102540000821C806FFF7B3F801218807FEF7E2FE6D
:1025500001218807FEF7FCFE09B030BD7FB50546B6
:102560000C4601210220FEF768FC0295ADF80440FC
:102570000020ADF80600ADF80C0001A92348FEF7D5
:102580005EFE012211462148FFF7FAFA01211F4899
:10259000FEF7DEFE1D208DF8000000208DF8010002
:1025A00003208DF8020001208DF803006846FDF736
:1025B000E4FF7FBD7FB505460C4601211020FEF7E4
:1025C0003CFC0295ADF804400020ADF80600ADF8E3
:1025D0000C0001A90E48FEF732FE012211460C48FC
:1025E000FFF7CEFA01210A48FEF7B2FE36208DF839
:1025F000000001208DF8010003208DF80200012069
:102600008DF803006846FDF7B8FF7FBD0004004069
:10261000001000401FB501212020FEF7C5FB4FF43C
:10262000C060029001208DF80C0000208DF80E0093
:1026300003208DF80D0001208DF80F0002A9CD4870
:10264000FEF714F901220221CB48FEF79AF9042083
:10265000009002208DF8040000208DF80600032071
:102660008DF8050001208DF807006946C248FEF785
:10267000FDF84FF4C061BF48FEF774F91FBD1FB5E8
:1026800001210846FEF790FB01208DF80C00002088
:102690008DF80E00BC20029001208DF80F00002064
:1026A0008DF80D0002A9B448FEF7E0F801210420DE
:1026B000FEF77AFB01208DF8040000208DF806005B
:1026C0001C20009001208DF8070000208DF80500E7
:1026D0006946AA48FEF7CAF8BC21A748FEF742F9A6
:1026E0001C21A648FEF73EF91FBD70B505460C46F5
:1026F000092D5ED2DFE805F05D05101B26313C4751
:10270000520024B904219C48FEF72CF903E004216F
:102710009948FEF729F94CE024B904219748FEF7BF
:1027200021F903E004219548FEF71EF941E024B9A0
:1027300010219148FEF716F903E010218E48FEF7AC
:1027400013F936E024B980218B48FEF70BF903E03A
:1027500080218948FEF708F92BE024B90821874831
:10276000FEF700F903E008218448FEF7FDF820E0B9
:1027700024B908218048FEF7F5F803E008217E48D7
:10278000FEF7F2F815E024B920217B48FEF7EAF8BD
:1027900003E020217848FEF7E7F80AE024B9102189
:1027A0007648FEF7DFF803E010217448FEF7DCF806
:1027B00000BF00BF70BD70B50446012C04D0022CD0
:1027C00023D0032C20D15AE001210846FFF78DFFCA
:1027D00001210220FFF789FF01210320FFF785FF78
:1027E00001210420FFF781FF01210520FFF77DFF74
:1027F00001210620FFF779FF01210720FFF775FF70
:1028000001210820FFF771FF8AE05D4800682D284C
:1028100002D100205A490860594800680521B0FBE0
:10282000F1F201FB120048BB00210120FFF75DFF20
:1028300000210220FFF759FF00210320FFF755FF79
:1028400000210420FFF751FF00210520FFF74DFF75
:1028500000210620FFF749FF00210720FFF745FF71
:1028600000210820FFF741FF454800680521B0FB23
:10287000F1F085B201212846FFF737FF50E04048CC
:1028800000680A2802D100203D4908603C480068E1
:1028900010B1052842D120E000210120FFF725FFDB
:1028A00000210220FFF721FF00210320FFF71DFF79
:1028B00000210420FFF719FF00210520FFF715FF75
:1028C00000210620FFF711FF00210720FFF70DFF71
:1028D00000210820FFF709FF20E001210846FFF74B
:1028E00004FF01210220FFF700FF01210320FFF771
:1028F000FCFE01210420FFF7F8FE01210520FFF76F
:10290000F4FE01210620FFF7F0FE01210720FFF76A
:10291000ECFE01210820FFF7E8FE00BF00BF00BF6A
:1029200000BF17480068401C1549086070BD10B50D
:1029300000210120FFF7D9FE00210220FFF7D5FE7C
:1029400000210320FFF7D1FE00210420FFF7CDFE78
:1029500000210520FFF7C9FE00210620FFF7C5FE74
:1029600000210720FFF7C1FE00210820FFF7BDFE70
:1029700010BD0000001402400000024000080240A8
:10298000380000201CB501212C20FEF70DFA4FF471
:10299000E050009001208DF8040000208DF8060022
:1029A00002208DF8050069466D48FDF75FFFFF20A6
:1029B000009001208DF8040000208DF80600022010
:1029C0008DF8050069466748FDF750FF1CBD10B53E
:1029D000044621466348FDF7CEFF0A20FFF760FC5E
:1029E00010BD10B504464FF480615D48FDF7BCFF93
:1029F0000A20FFF755FC4FF400615948FDF7B4FF7A
:102A00000A20FFF74DFC4FF480515548FDF7AAFF0F
:102A10000A20FFF745FC2046FFF7D9FF0520FFF706
:102A20003FFC4FF480514E48FDF79EFF10BD10B59E
:102A300004464FF480614A48FDF794FF0A20FFF7EF
:102A40002FFC4FF400614648FDF78EFF0A20FFF788
:102A500027FC4FF480514248FDF784FF0A20FFF71E
:102A60001FFC2046FFF7B3FF0520FFF719FC4FF4CA
:102A700080513B48FDF778FF10BD10B5FFF782FF8E
:102A80003820FFF7AEFF0520FFF70AFC0C20FFF708
:102A9000A8FF0520FFF704FC0620FFF7A2FF052092
:102AA000FFF7FEFB0120FFF79CFF0520FFF7F8FB77
:102AB00010BD10B50120FFF794FF0520FFF7F0FBD4
:102AC00010BD70B504460D46012C06D1691EC9B271
:102AD00041F08000FFF785FF08E0022C06D105F1E8
:102AE0003F01C9B241F08000FFF77BFF70BD70B5B8
:102AF00005460E46144631462846FFF7E2FF03E03E
:102B000014F8010BFFF793FF20780028F8D170BD6F
:102B100070B505460E46144631462846FFF7D1FFEC
:102B20002046FFF784FF70BD2DE9F04106460F46B1
:102B300014461D461DB91820FFF753FF02E01C2064
:102B4000FFF74FFF39463046FFF7BBFF03E014F8AD
:102B5000010BFFF76CFF20780028F8D1BDE8F08169
:102B600000080240000C0240704700000FB4044906
:102B700010B503AA029800F005F910BC5DF814FB2B
:102B8000300000200FB41CB5074B06AA7B446946F1
:102B90000090059800F0DDF80020694600F0ECF8A0
:102BA0001CBC5DF814FB0000E90100002DE9F041B8
:102BB0000E460446002020622046E168884730B374
:102BC000252805D0D4E901219047206A401CF2E76E
:102BD000E168204600278847050018D0A5F141008C
:102BE000192802D820354FF400673246294620467E
:102BF0002760FDF703FB40B1012804D0F61D26F045
:102C000007060836D8E7361DD6E72846DAE7206AF1
:102C1000BDE8F0812DE9F0410646002410687529D1
:102C2000314616A510D0AFF30080002802DA4042EA
:102C300013A507E031688A0701D512A502E049070C
:102C400004D511A5012401E0AFF3008000210A2280
:102C500006F1240709E0B0FBF2FCB0FBF2F302FB43
:102C60001C00303078541846491C0028F3D1234604
:102C70002A463046BDE8F04100F00CB800000000E4
:102C80002D0000002B00000020000000704770475E
:102C9000704770472DE9F0470D4699469246044625
:102CA00000F124080168880604D5E06921F01001CC
:102CB000216000E00120A84201DD471B00E0002761
:102CC000A1697A1902EB0900081AA0612078C006F0
:102CD00002D42046AFF30080002608E0D4E90121A9
:102CE0001AF806009047206A401C761C20624E4568
:102CF000F4DB2078C0060AD52046AFF3008006E05A
:102D0000D4E9012130209047206A401C2062381EFF
:102D1000A7F10107F4DC07E0D4E9012118F8050068
:102D20009047206A401C2062281EA5F10105F3DCB3
:102D30002046AFF300802078000602D50220BDE8CF
:102D4000F0870120FBE7000001694A1C0261087856
:102D5000704700B58FB0CDE90131002105910549DB
:102D60007944CDE9031011466846FFF71FFF0FB005
:102D700000BD0000E5FFFFFF0A6802F8010B0A60D2
:102D800070470000074B70B50D467B44FFF7E1FF2D
:102D90000446284600F008F810B14FF0FF3070BD2F
:102DA000204670BD57F5FFFF007B00F080007047A4
:102DB000754600F02BF8AE4605006946534620F0F4
:102DC0000700854618B020B5FDF7C0FBBDE82040E0
:102DD0004FF000064FF000074FF000084FF0000BD7
:102DE00021F00701AC46ACE8C009ACE8C009ACE88A
:102DF000C009ACE8C0098D46704710B50446AFF372
:102E000000802046BDE81040FDF70CBA004870472E
:102E1000040100204FF04070E1EE100A70470000FE
:102E2000402E0008000000203C000000C401000803
:102E30007C2E00083C0000202C070000E001000868
:102E40000000000000000000007A030A00000000FB
:102E5000000000000102030406070809000000004A
:102E60000102030401020304060708090000000030
:0C2E700000000000000000000000000056
:040000050800018965
:00000001FF
